{
  "contractName": "Marketplace",
  "abi": [
    {
      "constant": true,
      "inputs": [],
      "name": "name",
      "outputs": [
        {
          "name": "",
          "type": "string"
        }
      ],
      "payable": false,
      "stateMutability": "view",
      "type": "function"
    },
    {
      "constant": true,
      "inputs": [],
      "name": "seller",
      "outputs": [
        {
          "name": "",
          "type": "address"
        }
      ],
      "payable": false,
      "stateMutability": "view",
      "type": "function"
    },
    {
      "constant": true,
      "inputs": [],
      "name": "permitCount",
      "outputs": [
        {
          "name": "",
          "type": "uint256"
        }
      ],
      "payable": false,
      "stateMutability": "view",
      "type": "function"
    },
    {
      "constant": true,
      "inputs": [],
      "name": "buyer",
      "outputs": [
        {
          "name": "",
          "type": "address"
        }
      ],
      "payable": false,
      "stateMutability": "view",
      "type": "function"
    },
    {
      "constant": true,
      "inputs": [],
      "name": "bank",
      "outputs": [
        {
          "name": "",
          "type": "address"
        }
      ],
      "payable": false,
      "stateMutability": "view",
      "type": "function"
    },
    {
      "constant": true,
      "inputs": [
        {
          "name": "",
          "type": "uint256"
        }
      ],
      "name": "permits",
      "outputs": [
        {
          "name": "id",
          "type": "uint256"
        },
        {
          "name": "owner",
          "type": "address"
        },
        {
          "name": "propertyAddress",
          "type": "string"
        },
        {
          "name": "document",
          "type": "string"
        },
        {
          "name": "licenceNumber",
          "type": "string"
        },
        {
          "name": "status",
          "type": "uint8"
        }
      ],
      "payable": false,
      "stateMutability": "view",
      "type": "function"
    },
    {
      "constant": true,
      "inputs": [],
      "name": "authority",
      "outputs": [
        {
          "name": "",
          "type": "address"
        }
      ],
      "payable": false,
      "stateMutability": "view",
      "type": "function"
    },
    {
      "constant": true,
      "inputs": [],
      "name": "loanCount",
      "outputs": [
        {
          "name": "",
          "type": "uint256"
        }
      ],
      "payable": false,
      "stateMutability": "view",
      "type": "function"
    },
    {
      "constant": true,
      "inputs": [
        {
          "name": "",
          "type": "uint256"
        }
      ],
      "name": "loans",
      "outputs": [
        {
          "name": "id",
          "type": "uint256"
        },
        {
          "name": "owner",
          "type": "address"
        },
        {
          "name": "fullName",
          "type": "string"
        },
        {
          "name": "annualIncome",
          "type": "string"
        },
        {
          "name": "applicationPropertyAddress",
          "type": "string"
        },
        {
          "name": "loanAmount",
          "type": "string"
        },
        {
          "name": "status",
          "type": "uint8"
        }
      ],
      "payable": false,
      "stateMutability": "view",
      "type": "function"
    },
    {
      "inputs": [],
      "payable": false,
      "stateMutability": "nonpayable",
      "type": "constructor"
    },
    {
      "anonymous": false,
      "inputs": [
        {
          "indexed": false,
          "name": "id",
          "type": "uint256"
        },
        {
          "indexed": false,
          "name": "owner",
          "type": "address"
        },
        {
          "indexed": false,
          "name": "propertyAddress",
          "type": "string"
        },
        {
          "indexed": false,
          "name": "document",
          "type": "string"
        },
        {
          "indexed": false,
          "name": "licenceNumber",
          "type": "string"
        },
        {
          "indexed": false,
          "name": "status",
          "type": "uint8"
        }
      ],
      "name": "PermitCreated",
      "type": "event"
    },
    {
      "anonymous": false,
      "inputs": [
        {
          "indexed": false,
          "name": "id",
          "type": "uint256"
        },
        {
          "indexed": false,
          "name": "status",
          "type": "uint8"
        },
        {
          "indexed": false,
          "name": "authBy",
          "type": "address"
        }
      ],
      "name": "PermitStatus",
      "type": "event"
    },
    {
      "anonymous": false,
      "inputs": [
        {
          "indexed": false,
          "name": "id",
          "type": "uint256"
        },
        {
          "indexed": false,
          "name": "owner",
          "type": "address"
        },
        {
          "indexed": false,
          "name": "fullName",
          "type": "string"
        },
        {
          "indexed": false,
          "name": "annualIncome",
          "type": "string"
        },
        {
          "indexed": false,
          "name": "applicationPropertyAddress",
          "type": "string"
        },
        {
          "indexed": false,
          "name": "loanAmount",
          "type": "string"
        },
        {
          "indexed": false,
          "name": "status",
          "type": "uint8"
        }
      ],
      "name": "LoanCreated",
      "type": "event"
    },
    {
      "anonymous": false,
      "inputs": [
        {
          "indexed": false,
          "name": "id",
          "type": "uint256"
        },
        {
          "indexed": false,
          "name": "status",
          "type": "uint8"
        },
        {
          "indexed": false,
          "name": "authBy",
          "type": "address"
        }
      ],
      "name": "LoanStatus",
      "type": "event"
    },
    {
      "constant": false,
      "inputs": [
        {
          "name": "_propertyAddress",
          "type": "string"
        },
        {
          "name": "_document",
          "type": "string"
        },
        {
          "name": "_licenceNumber",
          "type": "string"
        },
        {
          "name": "_status",
          "type": "uint8"
        }
      ],
      "name": "createPermit",
      "outputs": [],
      "payable": false,
      "stateMutability": "nonpayable",
      "type": "function"
    },
    {
      "constant": false,
      "inputs": [
        {
          "name": "_id",
          "type": "uint256"
        },
        {
          "name": "_status",
          "type": "uint8"
        }
      ],
      "name": "updatePermit",
      "outputs": [],
      "payable": false,
      "stateMutability": "nonpayable",
      "type": "function"
    },
    {
      "constant": false,
      "inputs": [
        {
          "name": "_fullName",
          "type": "string"
        },
        {
          "name": "_applicationProperyAddress",
          "type": "string"
        },
        {
          "name": "_annualIncome",
          "type": "string"
        },
        {
          "name": "_loanAmount",
          "type": "string"
        },
        {
          "name": "_status",
          "type": "uint8"
        }
      ],
      "name": "createLoanApplication",
      "outputs": [],
      "payable": false,
      "stateMutability": "nonpayable",
      "type": "function"
    },
    {
      "constant": false,
      "inputs": [
        {
          "name": "_id",
          "type": "uint256"
        },
        {
          "name": "_status",
          "type": "uint8"
        }
      ],
      "name": "updateLoanApplication",
      "outputs": [],
      "payable": false,
      "stateMutability": "nonpayable",
      "type": "function"
    }
  ],
  "bytecode": "0x6080604052600060055560006007553480156200001b57600080fd5b506040805190810160405280601c81526020017f53494349205265616c20457374617465204d61726b6574706c616365000000008152506000908051906020019062000069929190620001c4565b50732b0d61c05d8caff492e1d6a6d3451437801d4b6b600160006101000a81548173ffffffffffffffffffffffffffffffffffffffff021916908373ffffffffffffffffffffffffffffffffffffffff16021790555073457e9ddff1409434d618461a2f5f15586fb0eb6c600260006101000a81548173ffffffffffffffffffffffffffffffffffffffff021916908373ffffffffffffffffffffffffffffffffffffffff16021790555073457e9ddff1409434d618461a2f5f15586fb0eb6c600360006101000a81548173ffffffffffffffffffffffffffffffffffffffff021916908373ffffffffffffffffffffffffffffffffffffffff160217905550737e14e1b59af858c2e366b1d902abbb743275f694600460006101000a81548173ffffffffffffffffffffffffffffffffffffffff021916908373ffffffffffffffffffffffffffffffffffffffff16021790555062000273565b828054600181600116156101000203166002900490600052602060002090601f016020900481019282601f106200020757805160ff191683800117855562000238565b8280016001018555821562000238579182015b82811115620002375782518255916020019190600101906200021a565b5b5090506200024791906200024b565b5090565b6200027091905b808211156200026c57600081600090555060010162000252565b5090565b90565b61279380620002836000396000f3fe6080604052600436106100bf576000357c01000000000000000000000000000000000000000000000000000000009004806306fdde03146100c457806308551a53146101545780631ba69a2e146101ab57806356ee4cd0146101f3578063670afd6b1461021e5780637150d8ae1461026657806376cdb03b146102bd5780638521b6a414610314578063bf7e214f146104ef578063ce63094d14610546578063e1ec3c6814610571578063ee9568b1146107b8578063fee42bda146109bb575b600080fd5b3480156100d057600080fd5b506100d9610c55565b6040518080602001828103825283818151815260200191508051906020019080838360005b838110156101195780820151818401526020810190506100fe565b50505050905090810190601f1680156101465780820380516001836020036101000a031916815260200191505b509250505060405180910390f35b34801561016057600080fd5b50610169610cf3565b604051808273ffffffffffffffffffffffffffffffffffffffff1673ffffffffffffffffffffffffffffffffffffffff16815260200191505060405180910390f35b3480156101b757600080fd5b506101f1600480360360408110156101ce57600080fd5b8101908080359060200190929190803560ff169060200190929190505050610d19565b005b3480156101ff57600080fd5b50610208611313565b6040518082815260200191505060405180910390f35b34801561022a57600080fd5b506102646004803603604081101561024157600080fd5b8101908080359060200190929190803560ff169060200190929190505050611319565b005b34801561027257600080fd5b5061027b611858565b604051808273ffffffffffffffffffffffffffffffffffffffff1673ffffffffffffffffffffffffffffffffffffffff16815260200191505060405180910390f35b3480156102c957600080fd5b506102d261187e565b604051808273ffffffffffffffffffffffffffffffffffffffff1673ffffffffffffffffffffffffffffffffffffffff16815260200191505060405180910390f35b34801561032057600080fd5b5061034d6004803603602081101561033757600080fd5b81019080803590602001909291905050506118a4565b604051808781526020018673ffffffffffffffffffffffffffffffffffffffff1673ffffffffffffffffffffffffffffffffffffffff1681526020018060200180602001806020018560038111156103a157fe5b60ff168152602001848103845288818151815260200191508051906020019080838360005b838110156103e15780820151818401526020810190506103c6565b50505050905090810190601f16801561040e5780820380516001836020036101000a031916815260200191505b50848103835287818151815260200191508051906020019080838360005b8381101561044757808201518184015260208101905061042c565b50505050905090810190601f1680156104745780820380516001836020036101000a031916815260200191505b50848103825286818151815260200191508051906020019080838360005b838110156104ad578082015181840152602081019050610492565b50505050905090810190601f1680156104da5780820380516001836020036101000a031916815260200191505b50995050505050505050505060405180910390f35b3480156104fb57600080fd5b50610504611ad5565b604051808273ffffffffffffffffffffffffffffffffffffffff1673ffffffffffffffffffffffffffffffffffffffff16815260200191505060405180910390f35b34801561055257600080fd5b5061055b611afb565b6040518082815260200191505060405180910390f35b34801561057d57600080fd5b506105aa6004803603602081101561059457600080fd5b8101908080359060200190929190505050611b01565b604051808881526020018773ffffffffffffffffffffffffffffffffffffffff1673ffffffffffffffffffffffffffffffffffffffff1681526020018060200180602001806020018060200186600381111561060257fe5b60ff16815260200185810385528a818151815260200191508051906020019080838360005b83811015610642578082015181840152602081019050610627565b50505050905090810190601f16801561066f5780820380516001836020036101000a031916815260200191505b50858103845289818151815260200191508051906020019080838360005b838110156106a857808201518184015260208101905061068d565b50505050905090810190601f1680156106d55780820380516001836020036101000a031916815260200191505b50858103835288818151815260200191508051906020019080838360005b8381101561070e5780820151818401526020810190506106f3565b50505050905090810190601f16801561073b5780820380516001836020036101000a031916815260200191505b50858103825287818151815260200191508051906020019080838360005b83811015610774578082015181840152602081019050610759565b50505050905090810190601f1680156107a15780820380516001836020036101000a031916815260200191505b509b50505050505050505050505060405180910390f35b3480156107c457600080fd5b506109b9600480360360808110156107db57600080fd5b81019080803590602001906401000000008111156107f857600080fd5b82018360208201111561080a57600080fd5b8035906020019184600183028401116401000000008311171561082c57600080fd5b91908080601f016020809104026020016040519081016040528093929190818152602001838380828437600081840152601f19601f8201169050808301925050505050505091929192908035906020019064010000000081111561088f57600080fd5b8201836020820111156108a157600080fd5b803590602001918460018302840111640100000000831117156108c357600080fd5b91908080601f016020809104026020016040519081016040528093929190818152602001838380828437600081840152601f19601f8201169050808301925050505050505091929192908035906020019064010000000081111561092657600080fd5b82018360208201111561093857600080fd5b8035906020019184600183028401116401000000008311171561095a57600080fd5b91908080601f016020809104026020016040519081016040528093929190818152602001838380828437600081840152601f19601f820116905080830192505050505050509192919290803560ff169060200190929190505050611dd0565b005b3480156109c757600080fd5b50610c53600480360360a08110156109de57600080fd5b81019080803590602001906401000000008111156109fb57600080fd5b820183602082011115610a0d57600080fd5b80359060200191846001830284011164010000000083111715610a2f57600080fd5b91908080601f016020809104026020016040519081016040528093929190818152602001838380828437600081840152601f19601f82011690508083019250505050505050919291929080359060200190640100000000811115610a9257600080fd5b820183602082011115610aa457600080fd5b80359060200191846001830284011164010000000083111715610ac657600080fd5b91908080601f016020809104026020016040519081016040528093929190818152602001838380828437600081840152601f19601f82011690508083019250505050505050919291929080359060200190640100000000811115610b2957600080fd5b820183602082011115610b3b57600080fd5b80359060200191846001830284011164010000000083111715610b5d57600080fd5b91908080601f016020809104026020016040519081016040528093929190818152602001838380828437600081840152601f19601f82011690508083019250505050505050919291929080359060200190640100000000811115610bc057600080fd5b820183602082011115610bd257600080fd5b80359060200191846001830284011164010000000083111715610bf457600080fd5b91908080601f016020809104026020016040519081016040528093929190818152602001838380828437600081840152601f19601f820116905080830192505050505050509192919290803560ff16906020019092919050505061219d565b005b60008054600181600116156101000203166002900480601f016020809104026020016040519081016040528092919081815260200182805460018160011615610100020316600290048015610ceb5780601f10610cc057610100808354040283529160200191610ceb565b820191906000526020600020905b815481529060010190602001808311610cce57829003601f168201915b505050505081565b600460009054906101000a900473ffffffffffffffffffffffffffffffffffffffff1681565b610d2161260b565b6008600084815260200190815260200160002060e06040519081016040529081600082015481526020016001820160009054906101000a900473ffffffffffffffffffffffffffffffffffffffff1673ffffffffffffffffffffffffffffffffffffffff1673ffffffffffffffffffffffffffffffffffffffff168152602001600282018054600181600116156101000203166002900480601f016020809104026020016040519081016040528092919081815260200182805460018160011615610100020316600290048015610e395780601f10610e0e57610100808354040283529160200191610e39565b820191906000526020600020905b815481529060010190602001808311610e1c57829003601f168201915b50505050508152602001600382018054600181600116156101000203166002900480601f016020809104026020016040519081016040528092919081815260200182805460018160011615610100020316600290048015610edb5780601f10610eb057610100808354040283529160200191610edb565b820191906000526020600020905b815481529060010190602001808311610ebe57829003601f168201915b50505050508152602001600482018054600181600116156101000203166002900480601f016020809104026020016040519081016040528092919081815260200182805460018160011615610100020316600290048015610f7d5780601f10610f5257610100808354040283529160200191610f7d565b820191906000526020600020905b815481529060010190602001808311610f6057829003601f168201915b50505050508152602001600582018054600181600116156101000203166002900480601f01602080910402602001604051908101604052809291908181526020018280546001816001161561010002031660029004801561101f5780601f10610ff45761010080835404028352916020019161101f565b820191906000526020600020905b81548152906001019060200180831161100257829003601f168201915b505050505081526020016006820160009054906101000a900460ff16600381111561104657fe5b600381111561105157fe5b815250509050600081600001511180156110715750600754816000015111155b151561107c57600080fd5b81600381111561108857fe5b8160c00151600381111561109857fe5b141515156110a557600080fd5b600060038111156110b257fe5b8260038111156110be57fe5b141515156110cb57600080fd5b3373ffffffffffffffffffffffffffffffffffffffff16816020015173ffffffffffffffffffffffffffffffffffffffff161415151561110a57600080fd5b600260009054906101000a900473ffffffffffffffffffffffffffffffffffffffff1673ffffffffffffffffffffffffffffffffffffffff163373ffffffffffffffffffffffffffffffffffffffff1614151561116657600080fd5b818160c00190600381111561117757fe5b9081600381111561118457fe5b8152505080600860008581526020019081526020016000206000820151816000015560208201518160010160006101000a81548173ffffffffffffffffffffffffffffffffffffffff021916908373ffffffffffffffffffffffffffffffffffffffff160217905550604082015181600201908051906020019061120992919061266a565b50606082015181600301908051906020019061122692919061266a565b50608082015181600401908051906020019061124392919061266a565b5060a082015181600501908051906020019061126092919061266a565b5060c08201518160060160006101000a81548160ff0219169083600381111561128557fe5b02179055509050507f2fee9a8d5f0d02992eab704501ccf23112fbf6ecbba6603f3d65405984cec77a838333604051808481526020018360038111156112c757fe5b60ff1681526020018273ffffffffffffffffffffffffffffffffffffffff1673ffffffffffffffffffffffffffffffffffffffff168152602001935050505060405180910390a1505050565b60055481565b6113216126ea565b6006600084815260200190815260200160002060c06040519081016040529081600082015481526020016001820160009054906101000a900473ffffffffffffffffffffffffffffffffffffffff1673ffffffffffffffffffffffffffffffffffffffff1673ffffffffffffffffffffffffffffffffffffffff168152602001600282018054600181600116156101000203166002900480601f0160208091040260200160405190810160405280929190818152602001828054600181600116156101000203166002900480156114395780601f1061140e57610100808354040283529160200191611439565b820191906000526020600020905b81548152906001019060200180831161141c57829003601f168201915b50505050508152602001600382018054600181600116156101000203166002900480601f0160208091040260200160405190810160405280929190818152602001828054600181600116156101000203166002900480156114db5780601f106114b0576101008083540402835291602001916114db565b820191906000526020600020905b8154815290600101906020018083116114be57829003601f168201915b50505050508152602001600482018054600181600116156101000203166002900480601f01602080910402602001604051908101604052809291908181526020018280546001816001161561010002031660029004801561157d5780601f106115525761010080835404028352916020019161157d565b820191906000526020600020905b81548152906001019060200180831161156057829003601f168201915b505050505081526020016005820160009054906101000a900460ff1660038111156115a457fe5b60038111156115af57fe5b815250509050600081600001511180156115cf5750600554816000015111155b15156115da57600080fd5b8060a0015160038111156115ea57fe5b8260038111156115f657fe5b1415151561160357600080fd5b6000600381111561161057fe5b82600381111561161c57fe5b1415151561162957600080fd5b3373ffffffffffffffffffffffffffffffffffffffff16816020015173ffffffffffffffffffffffffffffffffffffffff161415151561166857600080fd5b600160009054906101000a900473ffffffffffffffffffffffffffffffffffffffff1673ffffffffffffffffffffffffffffffffffffffff163373ffffffffffffffffffffffffffffffffffffffff161415156116c457600080fd5b818160a0019060038111156116d557fe5b908160038111156116e257fe5b8152505080600660008581526020019081526020016000206000820151816000015560208201518160010160006101000a81548173ffffffffffffffffffffffffffffffffffffffff021916908373ffffffffffffffffffffffffffffffffffffffff160217905550604082015181600201908051906020019061176792919061266a565b50606082015181600301908051906020019061178492919061266a565b5060808201518160040190805190602001906117a192919061266a565b5060a08201518160050160006101000a81548160ff021916908360038111156117c657fe5b02179055509050507fa19f1ca9de769052f3612836f1164482191e0d4c01642a97cea205f8383eda74838260a00151336040518084815260200183600381111561180c57fe5b60ff1681526020018273ffffffffffffffffffffffffffffffffffffffff1673ffffffffffffffffffffffffffffffffffffffff168152602001935050505060405180910390a1505050565b600360009054906101000a900473ffffffffffffffffffffffffffffffffffffffff1681565b600260009054906101000a900473ffffffffffffffffffffffffffffffffffffffff1681565b60066020528060005260406000206000915090508060000154908060010160009054906101000a900473ffffffffffffffffffffffffffffffffffffffff1690806002018054600181600116156101000203166002900480601f01602080910402602001604051908101604052809291908181526020018280546001816001161561010002031660029004801561197c5780601f106119515761010080835404028352916020019161197c565b820191906000526020600020905b81548152906001019060200180831161195f57829003601f168201915b505050505090806003018054600181600116156101000203166002900480601f016020809104026020016040519081016040528092919081815260200182805460018160011615610100020316600290048015611a1a5780601f106119ef57610100808354040283529160200191611a1a565b820191906000526020600020905b8154815290600101906020018083116119fd57829003601f168201915b505050505090806004018054600181600116156101000203166002900480601f016020809104026020016040519081016040528092919081815260200182805460018160011615610100020316600290048015611ab85780601f10611a8d57610100808354040283529160200191611ab8565b820191906000526020600020905b815481529060010190602001808311611a9b57829003601f168201915b5050505050908060050160009054906101000a900460ff16905086565b600160009054906101000a900473ffffffffffffffffffffffffffffffffffffffff1681565b60075481565b60086020528060005260406000206000915090508060000154908060010160009054906101000a900473ffffffffffffffffffffffffffffffffffffffff1690806002018054600181600116156101000203166002900480601f016020809104026020016040519081016040528092919081815260200182805460018160011615610100020316600290048015611bd95780601f10611bae57610100808354040283529160200191611bd9565b820191906000526020600020905b815481529060010190602001808311611bbc57829003601f168201915b505050505090806003018054600181600116156101000203166002900480601f016020809104026020016040519081016040528092919081815260200182805460018160011615610100020316600290048015611c775780601f10611c4c57610100808354040283529160200191611c77565b820191906000526020600020905b815481529060010190602001808311611c5a57829003601f168201915b505050505090806004018054600181600116156101000203166002900480601f016020809104026020016040519081016040528092919081815260200182805460018160011615610100020316600290048015611d155780601f10611cea57610100808354040283529160200191611d15565b820191906000526020600020905b815481529060010190602001808311611cf857829003601f168201915b505050505090806005018054600181600116156101000203166002900480601f016020809104026020016040519081016040528092919081815260200182805460018160011615610100020316600290048015611db35780601f10611d8857610100808354040283529160200191611db3565b820191906000526020600020905b815481529060010190602001808311611d9657829003601f168201915b5050505050908060060160009054906101000a900460ff16905087565b60008451111515611de057600080fd5b60008351111515611df057600080fd5b60008251111515611e0057600080fd5b60006003811115611e0d57fe5b816003811115611e1957fe5b141515611e2557600080fd5b600460009054906101000a900473ffffffffffffffffffffffffffffffffffffffff1673ffffffffffffffffffffffffffffffffffffffff163373ffffffffffffffffffffffffffffffffffffffff16141515611e8157600080fd5b60056000815480929190600101919050555060c06040519081016040528060055481526020013373ffffffffffffffffffffffffffffffffffffffff168152602001858152602001848152602001838152602001826003811115611ee157fe5b8152506006600060055481526020019081526020016000206000820151816000015560208201518160010160006101000a81548173ffffffffffffffffffffffffffffffffffffffff021916908373ffffffffffffffffffffffffffffffffffffffff1602179055506040820151816002019080519060200190611f6692919061266a565b506060820151816003019080519060200190611f8392919061266a565b506080820151816004019080519060200190611fa092919061266a565b5060a08201518160050160006101000a81548160ff02191690836003811115611fc557fe5b02179055509050507f8b5b3c14b17390b209c169b886419a26bcf5f434edc6e56182834e2b8eb6835c6005543386868686604051808781526020018673ffffffffffffffffffffffffffffffffffffffff1673ffffffffffffffffffffffffffffffffffffffff16815260200180602001806020018060200185600381111561204a57fe5b60ff168152602001848103845288818151815260200191508051906020019080838360005b8381101561208a57808201518184015260208101905061206f565b50505050905090810190601f1680156120b75780820380516001836020036101000a031916815260200191505b50848103835287818151815260200191508051906020019080838360005b838110156120f05780820151818401526020810190506120d5565b50505050905090810190601f16801561211d5780820380516001836020036101000a031916815260200191505b50848103825286818151815260200191508051906020019080838360005b8381101561215657808201518184015260208101905061213b565b50505050905090810190601f1680156121835780820380516001836020036101000a031916815260200191505b50995050505050505050505060405180910390a150505050565b600084511115156121ad57600080fd5b600085511115156121bd57600080fd5b600082511115156121cd57600080fd5b600083511115156121dd57600080fd5b600060038111156121ea57fe5b8160038111156121f657fe5b14151561220257600080fd5b600360009054906101000a900473ffffffffffffffffffffffffffffffffffffffff1673ffffffffffffffffffffffffffffffffffffffff163373ffffffffffffffffffffffffffffffffffffffff1614151561225e57600080fd5b60076000815480929190600101919050555060e06040519081016040528060075481526020013373ffffffffffffffffffffffffffffffffffffffff1681526020018681526020018481526020018581526020018381526020018260038111156122c457fe5b8152506008600060075481526020019081526020016000206000820151816000015560208201518160010160006101000a81548173ffffffffffffffffffffffffffffffffffffffff021916908373ffffffffffffffffffffffffffffffffffffffff160217905550604082015181600201908051906020019061234992919061266a565b50606082015181600301908051906020019061236692919061266a565b50608082015181600401908051906020019061238392919061266a565b5060a08201518160050190805190602001906123a092919061266a565b5060c08201518160060160006101000a81548160ff021916908360038111156123c557fe5b02179055509050507ffbf4345c536348924904ad56816b8758c94baf4d5c18e6bdb32c324284af9b73600754338786888787604051808881526020018773ffffffffffffffffffffffffffffffffffffffff1673ffffffffffffffffffffffffffffffffffffffff1681526020018060200180602001806020018060200186600381111561244f57fe5b60ff16815260200185810385528a818151815260200191508051906020019080838360005b8381101561248f578082015181840152602081019050612474565b50505050905090810190601f1680156124bc5780820380516001836020036101000a031916815260200191505b50858103845289818151815260200191508051906020019080838360005b838110156124f55780820151818401526020810190506124da565b50505050905090810190601f1680156125225780820380516001836020036101000a031916815260200191505b50858103835288818151815260200191508051906020019080838360005b8381101561255b578082015181840152602081019050612540565b50505050905090810190601f1680156125885780820380516001836020036101000a031916815260200191505b50858103825287818151815260200191508051906020019080838360005b838110156125c15780820151818401526020810190506125a6565b50505050905090810190601f1680156125ee5780820380516001836020036101000a031916815260200191505b509b50505050505050505050505060405180910390a15050505050565b60e06040519081016040528060008152602001600073ffffffffffffffffffffffffffffffffffffffff168152602001606081526020016060815260200160608152602001606081526020016000600381111561266457fe5b81525090565b828054600181600116156101000203166002900490600052602060002090601f016020900481019282601f106126ab57805160ff19168380011785556126d9565b828001600101855582156126d9579182015b828111156126d85782518255916020019190600101906126bd565b5b5090506126e69190612742565b5090565b60c06040519081016040528060008152602001600073ffffffffffffffffffffffffffffffffffffffff1681526020016060815260200160608152602001606081526020016000600381111561273c57fe5b81525090565b61276491905b80821115612760576000816000905550600101612748565b5090565b9056fea165627a7a723058200dafe7fe194362066c448cd89736a097d1a9085f57e8379df6a53b602e789ee00029",
  "source": "pragma solidity >0.5.0;\r\n\r\ncontract Marketplace {\r\n  string public name;\r\n  address public authority;\r\n  address public bank;\r\n  address public buyer;\r\n  address public seller;\r\n\r\n  uint256 public permitCount = 0;\r\n  mapping(uint256 => PermitApplication) public permits;\r\n\r\n  uint256 public loanCount = 0;\r\n  mapping(uint256 => LoanApplication) public loans;\r\n\r\n  // TODO - create the banking side of contracts - loanApplications etc\r\n\r\n  // mapping(address => Account) public accounts;\r\n\r\n  // enum to control the states of applications rather than multiple booleans\r\n  enum applicationStatus { applied, approved, denied, purchased }\r\n  applicationStatus constant default_value = applicationStatus.applied;\r\n\r\n  enum accountType { deployer, seller, authority, buyer, bank }\r\n\r\n  struct Account {\r\n    address accountAddress;\r\n    accountType account;\r\n  }\r\n\r\n  // TODO find a way for this to take a document - buffer maybe?\r\n  struct PermitApplication {\r\n    uint256 id;\r\n    address owner;\r\n    string propertyAddress;\r\n    string document;\r\n    string licenceNumber;\r\n    applicationStatus status;\r\n  }\r\n\r\n  event PermitCreated(\r\n    uint256 id,\r\n    address owner,\r\n    string propertyAddress,\r\n    string document,\r\n    string licenceNumber,\r\n    applicationStatus status\r\n  );\r\n\r\n  event PermitStatus(uint256 id, applicationStatus status, address authBy);\r\n\r\n  // original struct - too many variables for this version of truffle\r\n  // struct LoanApplication {\r\n  //     uint id;\r\n  //     address owner;\r\n  //     string fullName;\r\n  //     uint256 birthdate;\r\n  //     string currentAddress;\r\n  //     string contactNumber;\r\n  //     string employerName;\r\n  //     string annualIncome;\r\n  //     string applicationProperyAddress;\r\n  //     string loanAmount;\r\n  //     applicationStatus status;\r\n  // }\r\n  struct LoanApplication {\r\n    uint256 id;\r\n    address owner;\r\n    string fullName;\r\n    string annualIncome;\r\n    string applicationPropertyAddress;\r\n    string loanAmount;\r\n    applicationStatus status;\r\n  }\r\n\r\n  event LoanCreated(\r\n    uint256 id,\r\n    address owner,\r\n    string fullName,\r\n    string annualIncome,\r\n    string applicationPropertyAddress,\r\n    string loanAmount,\r\n    applicationStatus status\r\n  );\r\n\r\n  event LoanStatus(uint256 id, applicationStatus status, address authBy);\r\n\r\n  constructor() public {\r\n    name = 'SICI Real Estate Marketplace';\r\n    // Justin's addresses\r\n    authority = 0x2b0d61c05D8caFF492E1d6a6D3451437801D4b6B;\r\n    bank = 0x457e9ddFf1409434D618461a2f5F15586FB0eb6C;\r\n    buyer = 0x457e9ddFf1409434D618461a2f5F15586FB0eb6C;\r\n    seller = 0x7e14E1b59aF858C2E366B1d902aBBB743275F694;\r\n\r\n    // Sid's addresses\r\n    // authority = \r\n    // bank = 0x2E11fF485F0B543222e5cb392395f3ec748E37B8;\r\n    // buyer = \r\n    // seller = 0x7e14E1b59aF858C2E366B1d902aBBB743275F694;\r\n  }\r\n\r\n  function createPermit(\r\n    string memory _propertyAddress,\r\n    string memory _document,\r\n    string memory _licenceNumber,\r\n    applicationStatus _status\r\n  ) public {\r\n    // requires strings to not be empty\r\n    require(bytes(_propertyAddress).length > 0);\r\n    require(bytes(_document).length > 0);\r\n    require(bytes(_licenceNumber).length > 0);\r\n    // status of a new application must be applied ONLY\r\n    require(_status == applicationStatus.applied);\r\n    // only be created by a seller TODO find better implementation of this\r\n    require(msg.sender == seller);\r\n\r\n    permitCount++;\r\n    permits[permitCount] = PermitApplication(\r\n      permitCount,\r\n      msg.sender,\r\n      _propertyAddress,\r\n      _document,\r\n      _licenceNumber,\r\n      _status\r\n    );\r\n\r\n    emit PermitCreated(\r\n      permitCount,\r\n      msg.sender,\r\n      _propertyAddress,\r\n      _document,\r\n      _licenceNumber,\r\n      _status\r\n    );\r\n  }\r\n\r\n  /**\r\n   * Changes the permits status\r\n   * @param _id permit ID\r\n   * @param _status status that is being applied to the permit\r\n   */\r\n  function updatePermit(uint256 _id, applicationStatus _status) public {\r\n    // fetch permit\r\n    PermitApplication memory _permit = permits[_id];\r\n    // validate permit exists\r\n    require(_permit.id > 0 && _permit.id <= permitCount);\r\n    // validate that the status is not the same - NOT SURE THIS WORKS CORRECTLY\r\n    require(_status != _permit.status);\r\n    // validate that it is not being updated back to applied\r\n    require(_status != applicationStatus.applied);\r\n\r\n    // TODO find better implementation of auth checking - look into proof of authority if we can\r\n    // seller can not update their own permit\r\n    require(_permit.owner != msg.sender);\r\n    // only be updated by an authority\r\n    require(msg.sender == authority);\r\n\r\n    // update permit\r\n    _permit.status = _status;\r\n    permits[_id] = _permit;\r\n    // trigger event\r\n    emit PermitStatus(_id, _permit.status, msg.sender);\r\n  }\r\n\r\n  function createLoanApplication(\r\n    string memory _fullName,\r\n    string memory _applicationProperyAddress,\r\n    string memory _annualIncome,\r\n    string memory _loanAmount,\r\n    applicationStatus _status\r\n  ) public {\r\n    require(bytes(_applicationProperyAddress).length > 0);\r\n    require(bytes(_fullName).length > 0);\r\n    require(bytes(_loanAmount).length > 0);\r\n    require(bytes(_annualIncome).length > 0);\r\n    require(_status == applicationStatus.applied);\r\n    require(msg.sender == buyer);\r\n\r\n    loanCount++;\r\n\r\n    loans[loanCount] = LoanApplication(\r\n      loanCount,\r\n      msg.sender,\r\n      _fullName,\r\n      _annualIncome,\r\n      _applicationProperyAddress,\r\n      _loanAmount,\r\n      _status\r\n    );\r\n    emit LoanCreated(\r\n      loanCount,\r\n      msg.sender,\r\n      _fullName,\r\n      _annualIncome,\r\n      _applicationProperyAddress,\r\n      _loanAmount,\r\n      _status\r\n    );\r\n  }\r\n\r\n  function updateLoanApplication(uint256 _id, applicationStatus _status)\r\n    public\r\n  {\r\n    LoanApplication memory _loan = loans[_id];\r\n\r\n    // validate permit exists\r\n    require(_loan.id > 0 && _loan.id <= loanCount);\r\n    // validate that the status is not the same\r\n    require(_loan.status != _status);\r\n    require(_status != applicationStatus.applied);\r\n\r\n    require(_loan.owner != msg.sender);\r\n    require(msg.sender == bank); // Justin\r\n    // require(msg.sender == 0x2E11fF485F0B543222e5cb392395f3ec748E37B8); // Sid\r\n\r\n    _loan.status = _status;\r\n    loans[_id] = _loan;\r\n    emit LoanStatus(_id, _status, msg.sender);\r\n  }\r\n}\r\n",
  "sourcePath": "C:/Users/Justin/Documents/Education/RMIT/SICI/blockchain-app/src/contracts/Marketplace.sol",
  "compiler": {
    "name": "solc",
    "version": "0.5.1+commit.c8a2cb62.Emscripten.clang"
  },
  "schemaVersion": "3.0.2",
  "updatedAt": "2021-06-09T03:50:05.384Z",
  "devdoc": {
    "methods": {
      "updatePermit(uint256,uint8)": {
        "params": {
          "_id": "permit ID\r",
          "_status": "status that is being applied to the permit\r"
        }
      }
    }
  },
  "userdoc": {
    "methods": {
      "updatePermit(uint256,uint8)": {
        "notice": "Changes the permits status\r"
      }
    }
  }
}