{
  "contractName": "Marketplace",
  "abi": [
    {
      "constant": true,
      "inputs": [],
      "name": "name",
      "outputs": [
        {
          "name": "",
          "type": "string"
        }
      ],
      "payable": false,
      "stateMutability": "view",
      "type": "function"
    },
    {
      "constant": true,
      "inputs": [],
      "name": "permitCount",
      "outputs": [
        {
          "name": "",
          "type": "uint256"
        }
      ],
      "payable": false,
      "stateMutability": "view",
      "type": "function"
    },
    {
      "constant": true,
      "inputs": [
        {
          "name": "",
          "type": "uint256"
        }
      ],
      "name": "permits",
      "outputs": [
        {
          "name": "id",
          "type": "uint256"
        },
        {
          "name": "owner",
          "type": "address"
        },
        {
          "name": "propertyAddress",
          "type": "string"
        },
        {
          "name": "document",
          "type": "string"
        },
        {
          "name": "licenceNumber",
          "type": "string"
        },
        {
          "name": "status",
          "type": "uint8"
        }
      ],
      "payable": false,
      "stateMutability": "view",
      "type": "function"
    },
    {
      "constant": true,
      "inputs": [],
      "name": "loanCount",
      "outputs": [
        {
          "name": "",
          "type": "uint256"
        }
      ],
      "payable": false,
      "stateMutability": "view",
      "type": "function"
    },
    {
      "constant": true,
      "inputs": [
        {
          "name": "",
          "type": "uint256"
        }
      ],
      "name": "loans",
      "outputs": [
        {
          "name": "id",
          "type": "uint256"
        },
        {
          "name": "owner",
          "type": "address"
        },
        {
          "name": "fullName",
          "type": "string"
        },
        {
          "name": "annualIncome",
          "type": "string"
        },
        {
          "name": "applicationProperyAddress",
          "type": "string"
        },
        {
          "name": "loanAmount",
          "type": "string"
        },
        {
          "name": "status",
          "type": "uint8"
        }
      ],
      "payable": false,
      "stateMutability": "view",
      "type": "function"
    },
    {
      "inputs": [],
      "payable": false,
      "stateMutability": "nonpayable",
      "type": "constructor"
    },
    {
      "anonymous": false,
      "inputs": [
        {
          "indexed": false,
          "name": "id",
          "type": "uint256"
        },
        {
          "indexed": false,
          "name": "owner",
          "type": "address"
        },
        {
          "indexed": false,
          "name": "propertyAddress",
          "type": "string"
        },
        {
          "indexed": false,
          "name": "document",
          "type": "string"
        },
        {
          "indexed": false,
          "name": "licenceNumber",
          "type": "string"
        },
        {
          "indexed": false,
          "name": "status",
          "type": "uint8"
        }
      ],
      "name": "PermitCreated",
      "type": "event"
    },
    {
      "anonymous": false,
      "inputs": [
        {
          "indexed": false,
          "name": "id",
          "type": "uint256"
        },
        {
          "indexed": false,
          "name": "status",
          "type": "uint8"
        },
        {
          "indexed": false,
          "name": "authBy",
          "type": "address"
        }
      ],
      "name": "PermitStatus",
      "type": "event"
    },
    {
      "anonymous": false,
      "inputs": [
        {
          "indexed": false,
          "name": "id",
          "type": "uint256"
        },
        {
          "indexed": false,
          "name": "owner",
          "type": "address"
        },
        {
          "indexed": false,
          "name": "fullName",
          "type": "string"
        },
        {
          "indexed": false,
          "name": "annualIncome",
          "type": "string"
        },
        {
          "indexed": false,
          "name": "applicationPropertyAddress",
          "type": "string"
        },
        {
          "indexed": false,
          "name": "loanAmount",
          "type": "string"
        },
        {
          "indexed": false,
          "name": "status",
          "type": "uint8"
        }
      ],
      "name": "LoanCreated",
      "type": "event"
    },
    {
      "anonymous": false,
      "inputs": [
        {
          "indexed": false,
          "name": "id",
          "type": "uint256"
        },
        {
          "indexed": false,
          "name": "authBy",
          "type": "address"
        },
        {
          "indexed": false,
          "name": "status",
          "type": "uint8"
        }
      ],
      "name": "LoanStatus",
      "type": "event"
    },
    {
      "constant": false,
      "inputs": [
        {
          "name": "_propertyAddress",
          "type": "string"
        },
        {
          "name": "_document",
          "type": "string"
        },
        {
          "name": "_licenceNumber",
          "type": "string"
        },
        {
          "name": "_status",
          "type": "uint8"
        }
      ],
      "name": "createPermit",
      "outputs": [],
      "payable": false,
      "stateMutability": "nonpayable",
      "type": "function"
    },
    {
      "constant": false,
      "inputs": [
        {
          "name": "_id",
          "type": "uint256"
        },
        {
          "name": "_status",
          "type": "uint8"
        }
      ],
      "name": "updatePermit",
      "outputs": [],
      "payable": false,
      "stateMutability": "nonpayable",
      "type": "function"
    },
    {
      "constant": false,
      "inputs": [
        {
          "name": "_fullName",
          "type": "string"
        },
        {
          "name": "_applicationProperyAddress",
          "type": "string"
        },
        {
          "name": "_annualIncome",
          "type": "string"
        },
        {
          "name": "_loanAmount",
          "type": "string"
        },
        {
          "name": "_status",
          "type": "uint8"
        }
      ],
      "name": "createLoanApplication",
      "outputs": [],
      "payable": false,
      "stateMutability": "nonpayable",
      "type": "function"
    }
  ],
  "bytecode": "0x6080604052600060015560006003553480156200001b57600080fd5b506040805190810160405280601c81526020017f53494349205265616c20457374617465204d61726b6574706c61636500000000815250600090805190602001906200006992919062000070565b506200011f565b828054600181600116156101000203166002900490600052602060002090601f016020900481019282601f10620000b357805160ff1916838001178555620000e4565b82800160010185558215620000e4579182015b82811115620000e3578251825591602001919060010190620000c6565b5b509050620000f39190620000f7565b5090565b6200011c91905b8082111562000118576000816000905550600101620000fe565b5090565b90565b611e1a806200012f6000396000f3fe608060405260043610610088576000357c01000000000000000000000000000000000000000000000000000000009004806306fdde031461008d57806356ee4cd01461011d578063670afd6b146101485780638521b6a414610190578063ce63094d1461036b578063e1ec3c6814610396578063ee9568b1146105dd578063fee42bda146107e0575b600080fd5b34801561009957600080fd5b506100a2610a7a565b6040518080602001828103825283818151815260200191508051906020019080838360005b838110156100e25780820151818401526020810190506100c7565b50505050905090810190601f16801561010f5780820380516001836020036101000a031916815260200191505b509250505060405180910390f35b34801561012957600080fd5b50610132610b18565b6040518082815260200191505060405180910390f35b34801561015457600080fd5b5061018e6004803603604081101561016b57600080fd5b8101908080359060200190929190803560ff169060200190929190505050610b1e565b005b34801561019c57600080fd5b506101c9600480360360208110156101b357600080fd5b810190808035906020019092919050505061104f565b604051808781526020018673ffffffffffffffffffffffffffffffffffffffff1673ffffffffffffffffffffffffffffffffffffffff16815260200180602001806020018060200185600381111561021d57fe5b60ff168152602001848103845288818151815260200191508051906020019080838360005b8381101561025d578082015181840152602081019050610242565b50505050905090810190601f16801561028a5780820380516001836020036101000a031916815260200191505b50848103835287818151815260200191508051906020019080838360005b838110156102c35780820151818401526020810190506102a8565b50505050905090810190601f1680156102f05780820380516001836020036101000a031916815260200191505b50848103825286818151815260200191508051906020019080838360005b8381101561032957808201518184015260208101905061030e565b50505050905090810190601f1680156103565780820380516001836020036101000a031916815260200191505b50995050505050505050505060405180910390f35b34801561037757600080fd5b50610380611280565b6040518082815260200191505060405180910390f35b3480156103a257600080fd5b506103cf600480360360208110156103b957600080fd5b8101908080359060200190929190505050611286565b604051808881526020018773ffffffffffffffffffffffffffffffffffffffff1673ffffffffffffffffffffffffffffffffffffffff1681526020018060200180602001806020018060200186600381111561042757fe5b60ff16815260200185810385528a818151815260200191508051906020019080838360005b8381101561046757808201518184015260208101905061044c565b50505050905090810190601f1680156104945780820380516001836020036101000a031916815260200191505b50858103845289818151815260200191508051906020019080838360005b838110156104cd5780820151818401526020810190506104b2565b50505050905090810190601f1680156104fa5780820380516001836020036101000a031916815260200191505b50858103835288818151815260200191508051906020019080838360005b83811015610533578082015181840152602081019050610518565b50505050905090810190601f1680156105605780820380516001836020036101000a031916815260200191505b50858103825287818151815260200191508051906020019080838360005b8381101561059957808201518184015260208101905061057e565b50505050905090810190601f1680156105c65780820380516001836020036101000a031916815260200191505b509b50505050505050505050505060405180910390f35b3480156105e957600080fd5b506107de6004803603608081101561060057600080fd5b810190808035906020019064010000000081111561061d57600080fd5b82018360208201111561062f57600080fd5b8035906020019184600183028401116401000000008311171561065157600080fd5b91908080601f016020809104026020016040519081016040528093929190818152602001838380828437600081840152601f19601f820116905080830192505050505050509192919290803590602001906401000000008111156106b457600080fd5b8201836020820111156106c657600080fd5b803590602001918460018302840111640100000000831117156106e857600080fd5b91908080601f016020809104026020016040519081016040528093929190818152602001838380828437600081840152601f19601f8201169050808301925050505050505091929192908035906020019064010000000081111561074b57600080fd5b82018360208201111561075d57600080fd5b8035906020019184600183028401116401000000008311171561077f57600080fd5b91908080601f016020809104026020016040519081016040528093929190818152602001838380828437600081840152601f19601f820116905080830192505050505050509192919290803560ff169060200190929190505050611555565b005b3480156107ec57600080fd5b50610a78600480360360a081101561080357600080fd5b810190808035906020019064010000000081111561082057600080fd5b82018360208201111561083257600080fd5b8035906020019184600183028401116401000000008311171561085457600080fd5b91908080601f016020809104026020016040519081016040528093929190818152602001838380828437600081840152601f19601f820116905080830192505050505050509192919290803590602001906401000000008111156108b757600080fd5b8201836020820111156108c957600080fd5b803590602001918460018302840111640100000000831117156108eb57600080fd5b91908080601f016020809104026020016040519081016040528093929190818152602001838380828437600081840152601f19601f8201169050808301925050505050505091929192908035906020019064010000000081111561094e57600080fd5b82018360208201111561096057600080fd5b8035906020019184600183028401116401000000008311171561098257600080fd5b91908080601f016020809104026020016040519081016040528093929190818152602001838380828437600081840152601f19601f820116905080830192505050505050509192919290803590602001906401000000008111156109e557600080fd5b8201836020820111156109f757600080fd5b80359060200191846001830284011164010000000083111715610a1957600080fd5b91908080601f016020809104026020016040519081016040528093929190818152602001838380828437600081840152601f19601f820116905080830192505050505050509192919290803560ff169060200190929190505050611914565b005b60008054600181600116156101000203166002900480601f016020809104026020016040519081016040528092919081815260200182805460018160011615610100020316600290048015610b105780601f10610ae557610100808354040283529160200191610b10565b820191906000526020600020905b815481529060010190602001808311610af357829003601f168201915b505050505081565b60015481565b610b26611cf1565b6002600084815260200190815260200160002060c06040519081016040529081600082015481526020016001820160009054906101000a900473ffffffffffffffffffffffffffffffffffffffff1673ffffffffffffffffffffffffffffffffffffffff1673ffffffffffffffffffffffffffffffffffffffff168152602001600282018054600181600116156101000203166002900480601f016020809104026020016040519081016040528092919081815260200182805460018160011615610100020316600290048015610c3e5780601f10610c1357610100808354040283529160200191610c3e565b820191906000526020600020905b815481529060010190602001808311610c2157829003601f168201915b50505050508152602001600382018054600181600116156101000203166002900480601f016020809104026020016040519081016040528092919081815260200182805460018160011615610100020316600290048015610ce05780601f10610cb557610100808354040283529160200191610ce0565b820191906000526020600020905b815481529060010190602001808311610cc357829003601f168201915b50505050508152602001600482018054600181600116156101000203166002900480601f016020809104026020016040519081016040528092919081815260200182805460018160011615610100020316600290048015610d825780601f10610d5757610100808354040283529160200191610d82565b820191906000526020600020905b815481529060010190602001808311610d6557829003601f168201915b505050505081526020016005820160009054906101000a900460ff166003811115610da957fe5b6003811115610db457fe5b81525050905060008160000151118015610dd45750600154816000015111155b1515610ddf57600080fd5b8060a001516003811115610def57fe5b826003811115610dfb57fe5b14151515610e0857600080fd5b60006003811115610e1557fe5b826003811115610e2157fe5b14151515610e2e57600080fd5b3373ffffffffffffffffffffffffffffffffffffffff16816020015173ffffffffffffffffffffffffffffffffffffffff1614151515610e6d57600080fd5b732b0d61c05d8caff492e1d6a6d3451437801d4b6b73ffffffffffffffffffffffffffffffffffffffff163373ffffffffffffffffffffffffffffffffffffffff16141515610ebb57600080fd5b818160a001906003811115610ecc57fe5b90816003811115610ed957fe5b8152505080600260008581526020019081526020016000206000820151816000015560208201518160010160006101000a81548173ffffffffffffffffffffffffffffffffffffffff021916908373ffffffffffffffffffffffffffffffffffffffff1602179055506040820151816002019080519060200190610f5e929190611d49565b506060820151816003019080519060200190610f7b929190611d49565b506080820151816004019080519060200190610f98929190611d49565b5060a08201518160050160006101000a81548160ff02191690836003811115610fbd57fe5b02179055509050507fa19f1ca9de769052f3612836f1164482191e0d4c01642a97cea205f8383eda74838260a00151336040518084815260200183600381111561100357fe5b60ff1681526020018273ffffffffffffffffffffffffffffffffffffffff1673ffffffffffffffffffffffffffffffffffffffff168152602001935050505060405180910390a1505050565b60026020528060005260406000206000915090508060000154908060010160009054906101000a900473ffffffffffffffffffffffffffffffffffffffff1690806002018054600181600116156101000203166002900480601f0160208091040260200160405190810160405280929190818152602001828054600181600116156101000203166002900480156111275780601f106110fc57610100808354040283529160200191611127565b820191906000526020600020905b81548152906001019060200180831161110a57829003601f168201915b505050505090806003018054600181600116156101000203166002900480601f0160208091040260200160405190810160405280929190818152602001828054600181600116156101000203166002900480156111c55780601f1061119a576101008083540402835291602001916111c5565b820191906000526020600020905b8154815290600101906020018083116111a857829003601f168201915b505050505090806004018054600181600116156101000203166002900480601f0160208091040260200160405190810160405280929190818152602001828054600181600116156101000203166002900480156112635780601f1061123857610100808354040283529160200191611263565b820191906000526020600020905b81548152906001019060200180831161124657829003601f168201915b5050505050908060050160009054906101000a900460ff16905086565b60035481565b60046020528060005260406000206000915090508060000154908060010160009054906101000a900473ffffffffffffffffffffffffffffffffffffffff1690806002018054600181600116156101000203166002900480601f01602080910402602001604051908101604052809291908181526020018280546001816001161561010002031660029004801561135e5780601f106113335761010080835404028352916020019161135e565b820191906000526020600020905b81548152906001019060200180831161134157829003601f168201915b505050505090806003018054600181600116156101000203166002900480601f0160208091040260200160405190810160405280929190818152602001828054600181600116156101000203166002900480156113fc5780601f106113d1576101008083540402835291602001916113fc565b820191906000526020600020905b8154815290600101906020018083116113df57829003601f168201915b505050505090806004018054600181600116156101000203166002900480601f01602080910402602001604051908101604052809291908181526020018280546001816001161561010002031660029004801561149a5780601f1061146f5761010080835404028352916020019161149a565b820191906000526020600020905b81548152906001019060200180831161147d57829003601f168201915b505050505090806005018054600181600116156101000203166002900480601f0160208091040260200160405190810160405280929190818152602001828054600181600116156101000203166002900480156115385780601f1061150d57610100808354040283529160200191611538565b820191906000526020600020905b81548152906001019060200180831161151b57829003601f168201915b5050505050908060060160009054906101000a900460ff16905087565b6000845111151561156557600080fd5b6000835111151561157557600080fd5b6000825111151561158557600080fd5b6000600381111561159257fe5b81600381111561159e57fe5b1415156115aa57600080fd5b737e14e1b59af858c2e366b1d902abbb743275f69473ffffffffffffffffffffffffffffffffffffffff163373ffffffffffffffffffffffffffffffffffffffff161415156115f857600080fd5b60016000815480929190600101919050555060c06040519081016040528060015481526020013373ffffffffffffffffffffffffffffffffffffffff16815260200185815260200184815260200183815260200182600381111561165857fe5b8152506002600060015481526020019081526020016000206000820151816000015560208201518160010160006101000a81548173ffffffffffffffffffffffffffffffffffffffff021916908373ffffffffffffffffffffffffffffffffffffffff16021790555060408201518160020190805190602001906116dd929190611d49565b5060608201518160030190805190602001906116fa929190611d49565b506080820151816004019080519060200190611717929190611d49565b5060a08201518160050160006101000a81548160ff0219169083600381111561173c57fe5b02179055509050507f8b5b3c14b17390b209c169b886419a26bcf5f434edc6e56182834e2b8eb6835c6001543386868686604051808781526020018673ffffffffffffffffffffffffffffffffffffffff1673ffffffffffffffffffffffffffffffffffffffff1681526020018060200180602001806020018560038111156117c157fe5b60ff168152602001848103845288818151815260200191508051906020019080838360005b838110156118015780820151818401526020810190506117e6565b50505050905090810190601f16801561182e5780820380516001836020036101000a031916815260200191505b50848103835287818151815260200191508051906020019080838360005b8381101561186757808201518184015260208101905061184c565b50505050905090810190601f1680156118945780820380516001836020036101000a031916815260200191505b50848103825286818151815260200191508051906020019080838360005b838110156118cd5780820151818401526020810190506118b2565b50505050905090810190601f1680156118fa5780820380516001836020036101000a031916815260200191505b50995050505050505050505060405180910390a150505050565b6000845111151561192457600080fd5b6000855111151561193457600080fd5b6000825111151561194457600080fd5b60036000815480929190600101919050555060e06040519081016040528060035481526020013373ffffffffffffffffffffffffffffffffffffffff1681526020018681526020018481526020018581526020018381526020018260038111156119aa57fe5b8152506004600060035481526020019081526020016000206000820151816000015560208201518160010160006101000a81548173ffffffffffffffffffffffffffffffffffffffff021916908373ffffffffffffffffffffffffffffffffffffffff1602179055506040820151816002019080519060200190611a2f929190611d49565b506060820151816003019080519060200190611a4c929190611d49565b506080820151816004019080519060200190611a69929190611d49565b5060a0820151816005019080519060200190611a86929190611d49565b5060c08201518160060160006101000a81548160ff02191690836003811115611aab57fe5b02179055509050507ffbf4345c536348924904ad56816b8758c94baf4d5c18e6bdb32c324284af9b73600354338786888787604051808881526020018773ffffffffffffffffffffffffffffffffffffffff1673ffffffffffffffffffffffffffffffffffffffff16815260200180602001806020018060200180602001866003811115611b3557fe5b60ff16815260200185810385528a818151815260200191508051906020019080838360005b83811015611b75578082015181840152602081019050611b5a565b50505050905090810190601f168015611ba25780820380516001836020036101000a031916815260200191505b50858103845289818151815260200191508051906020019080838360005b83811015611bdb578082015181840152602081019050611bc0565b50505050905090810190601f168015611c085780820380516001836020036101000a031916815260200191505b50858103835288818151815260200191508051906020019080838360005b83811015611c41578082015181840152602081019050611c26565b50505050905090810190601f168015611c6e5780820380516001836020036101000a031916815260200191505b50858103825287818151815260200191508051906020019080838360005b83811015611ca7578082015181840152602081019050611c8c565b50505050905090810190601f168015611cd45780820380516001836020036101000a031916815260200191505b509b50505050505050505050505060405180910390a15050505050565b60c06040519081016040528060008152602001600073ffffffffffffffffffffffffffffffffffffffff16815260200160608152602001606081526020016060815260200160006003811115611d4357fe5b81525090565b828054600181600116156101000203166002900490600052602060002090601f016020900481019282601f10611d8a57805160ff1916838001178555611db8565b82800160010185558215611db8579182015b82811115611db7578251825591602001919060010190611d9c565b5b509050611dc59190611dc9565b5090565b611deb91905b80821115611de7576000816000905550600101611dcf565b5090565b9056fea165627a7a72305820c51610e520906506b4cae6b8b56d3fd1b1cc4f48be7f4a81299cd9838840e4130029",
  "source": "pragma solidity >0.5.0;\r\n\r\ncontract Marketplace {\r\n    string public name;\r\n    // string public Authority;\r\n    // string public Seller;\r\n\r\n    uint public permitCount = 0;\r\n    mapping(uint => PermitApplication) public permits;\r\n\r\n    uint public loanCount = 0;\r\n    mapping(uint => LoanApplication) public loans;\r\n\r\n    // TODO - create the banking side of contracts - loanApplications etc\r\n\r\n    // mapping(address => Account) public accounts;\r\n\r\n    // enum to control the states of applications rather than multiple booleans\r\n    enum applicationStatus {\r\n        applied,\r\n        approved,\r\n        denied,\r\n        purchased\r\n    }\r\n    applicationStatus constant default_value = applicationStatus.applied;\r\n\r\n    enum accountType {\r\n        deployer,\r\n        seller,\r\n        authority,\r\n        buyer,\r\n        bank\r\n    }\r\n\r\n    struct Account {\r\n        address accountAddress;\r\n        accountType account;\r\n    }\r\n\r\n    // TODO find a way for this to take a document - buffer maybe?\r\n    struct PermitApplication {\r\n        uint id;\r\n        address owner;\r\n        string propertyAddress;\r\n        string document;\r\n        string licenceNumber;\r\n        applicationStatus status; \r\n    }\r\n\r\n    event PermitCreated(\r\n        uint id,\r\n        address owner,\r\n        string propertyAddress,\r\n        string document,\r\n        string licenceNumber,\r\n        applicationStatus status\r\n        );\r\n\r\n    event PermitStatus(\r\n        uint id,\r\n        applicationStatus status,\r\n        address authBy\r\n    );\r\n        \r\n        // original struct - too many variables\r\n    // struct LoanApplication {\r\n    //     uint id;\r\n    //     address owner;\r\n    //     string fullName;\r\n    //     uint256 birthdate;\r\n    //     string currentAddress;\r\n    //     string contactNumber;\r\n    //     string employerName;\r\n    //     string annualIncome;\r\n    //     string applicationProperyAddress;\r\n    //     string loanAmount;\r\n    //     applicationStatus status;\r\n    // }\r\n    struct LoanApplication {\r\n        uint id;\r\n        address owner;\r\n        string fullName;\r\n        string annualIncome;\r\n        string applicationProperyAddress;\r\n        string loanAmount;\r\n        applicationStatus status;\r\n    }\r\n\r\n\r\n    event LoanCreated(\r\n        uint id,\r\n        address owner,\r\n        string fullName,\r\n        string annualIncome,\r\n        string applicationPropertyAddress,\r\n        string loanAmount,\r\n        applicationStatus status\r\n    );\r\n    \r\n    event LoanStatus(\r\n        uint id,\r\n        address authBy,\r\n        applicationStatus status\r\n    );\r\n\r\n\r\n    constructor() public {\r\n        name = \"SICI Real Estate Marketplace\";\r\n    }\r\n\r\n\r\n    function createPermit(string memory _propertyAddress, string memory _document, string memory _licenceNumber, applicationStatus _status) public {\r\n        // requires strings to not be empty\r\n        require(bytes(_propertyAddress).length > 0);\r\n        require(bytes(_document).length > 0);\r\n        require(bytes(_licenceNumber).length > 0);\r\n        // status of a new application must be applied ONLY\r\n        require(_status == applicationStatus.applied);\r\n        // only be created by a seller TODO find better implementation of this\r\n        require(msg.sender == 0x7e14E1b59aF858C2E366B1d902aBBB743275F694);\r\n\r\n        permitCount++;\r\n        permits[permitCount] = PermitApplication(permitCount, msg.sender, _propertyAddress, _document, _licenceNumber, _status);\r\n\r\n        emit PermitCreated(permitCount, msg.sender, _propertyAddress, _document, _licenceNumber, _status);\r\n    }\r\n\r\n    /**\r\n    * Changes the permits status\r\n    * @param _id permit ID\r\n    * @param _status status that is being applied to the permit\r\n     */\r\n    function updatePermit(uint _id, applicationStatus _status) public {\r\n        // fetch permit\r\n        PermitApplication memory _permit = permits[_id];\r\n        // validate permit exists\r\n        require(_permit.id > 0 && _permit.id <= permitCount);\r\n        // validate that the status is not the same - NOT SURE THIS WORKS CORRECTLY\r\n        require(_status != _permit.status);\r\n        // validate that it is not being updated back to applied\r\n        require(_status != applicationStatus.applied);\r\n\r\n        // TODO find better implementation of auth checking - look into proof of authority if we can\r\n        // seller can not update their own permit\r\n        require(_permit.owner != msg.sender);\r\n        // only be updated by an authority \r\n        require(msg.sender == 0x2b0d61c05D8caFF492E1d6a6D3451437801D4b6B);\r\n\r\n\r\n        // update permit\r\n        _permit.status = _status;\r\n        permits[_id] = _permit;\r\n        // trigger event\r\n        emit PermitStatus(_id, _permit.status, msg.sender);\r\n    }\r\n\r\n    function createLoanApplication(\r\n        string memory _fullName,\r\n        string memory _applicationProperyAddress, \r\n        string memory _annualIncome,\r\n        string memory _loanAmount, \r\n        applicationStatus _status) public {\r\n            \r\n            require(bytes(_applicationProperyAddress).length > 0);\r\n            require(bytes(_fullName).length > 0);\r\n            require(bytes(_loanAmount).length > 0);\r\n\r\n            loanCount++;\r\n            loans[loanCount] = LoanApplication(loanCount, msg.sender, _fullName, _annualIncome, _applicationProperyAddress, _loanAmount, _status);\r\n            emit LoanCreated(loanCount, msg.sender, _fullName, _annualIncome, _applicationProperyAddress, _loanAmount, _status);\r\n    }\r\n\r\n    // function updateLoanApplication(uint _id, applicationStatus _status) public {\r\n    //     LoanApplication memory _loan = loans[_id];\r\n        \r\n    //     // validate permit exists\r\n    //     require(_loan.id > 0 && _loan.id <= loanCount);\r\n    //     // validate that the status is not the same\r\n    //     require(_loan.status != _status);\r\n        \r\n    //     require(msg.sender == 0x2b0d61c05D8caFF492E1d6a6D3451437801D4b6B);\r\n    //     _loan.status = _status;\r\n    //     emit LoanStatus(_id, msg.sender, _status);\r\n    // }\r\n\r\n}\r\n\r\n",
  "sourcePath": "C:/Users/Justin/Documents/Education/RMIT/SICI/blockchain-app/src/contracts/Marketplace.sol",
  "compiler": {
    "name": "solc",
    "version": "0.5.1+commit.c8a2cb62.Emscripten.clang"
  },
  "schemaVersion": "3.0.2",
  "updatedAt": "2021-06-03T10:47:20.318Z",
  "devdoc": {
    "methods": {
      "updatePermit(uint256,uint8)": {
        "params": {
          "_id": "permit ID\r",
          "_status": "status that is being applied to the permit\r"
        }
      }
    }
  },
  "userdoc": {
    "methods": {
      "updatePermit(uint256,uint8)": {
        "notice": "Changes the permits status\r"
      }
    }
  }
}